:020000040800F2
:10000000080D002001010008C5570008214B000819
:1000100005570008150D0008B56200080000000033
:10002000000000000000000000000000A15A0008CD
:1000300047160008000000005D580008755B0008C6
:100040001B0100081B0100081B0100081B01000820
:100050001B0100081B0100081B0100081B01000810
:100060001B0100081B0100081B0100080516000801
:100070001B0100081B010008111600081B010008E5
:100080001B0100081B0100081B0100081B010008E0
:100090009D6200081B0100081B010008151B0008D9
:1000A0001B010008B95C00081B0100081B010008C7
:1000B000C55C00081D5D0008295D00081B010008E3
:1000C0001B0100081B0100081B0100081B010008A0
:1000D0001B010008916200081B0100081B010008B9
:1000E0001B0100081B0100081B010008DFF80CD0F1
:1000F00000F07CFC00480047E56C0008080D00207B
:100100000648804706480047FEE7FEE7FEE7FEE7B1
:10011000FEE7FEE7FEE7FEE7FEE7FEE7F55B000829
:10012000ED000008202A04DB203A21FA02F0002129
:10013000704721FA02F3D040C2F1200291400843F7
:1001400019467047A0F16101192900D8203870477D
:10015000D2B201E000F8012B491EFBD27047002209
:10016000F6E710B513460A4604461946FFF7F0FFB6
:10017000204610BDF0B480EA0102D40F4200B2EB79
:10018000410F02D20246084611464A0042D0C30D32
:10019000DDB2C1F3C752AD1A202D35DAC1F3160115
:1001A00041F4000204B15242C5F1200602FA06F100
:1001B0002A411044B3EBD05F23D0C4B1012DA0EB92
:1001C000C35009DCF0BC4FF0004202EAC352DBB27C
:1001D00000F5000000F03DBB400000F1807000EB36
:1001E000C350A0F1807040EAD170490009E049088D
:1001F00041EAC071A0EBC35000F50000400800EBDD
:10020000C350F0BC00F01CBB6142012202EB410173
:10021000001BF6E7F0BC704781F00041AAE780F0D0
:100220000040A7E780EA010210B502F00043400059
:1002300022D04A001FD0010E01EB1261C0F356001C
:10024000C2F3560240F4000042F40002A0FB022078
:1002500000047F39140400D0401C50EA124001D43D
:100260004000491EC2B20C0604EBD010401C4008EE
:10027000802A02D003E0002010BD20F001000029F8
:1002800000DA0020184310BD30B480EA010202F009
:10029000004530F0004221F0004013D090B1C30D72
:1002A000D40DC2F31601C0F31600E41A41F40001A4
:1002B00040F400027D34914201D3641C00E0490007
:1002C000002C02DA30BC002070474FF400000023FD
:1002D000914201D3891A034340084FEA4101F7D103
:1002E00051B1914202D14FF0004105E002D24FF0EE
:1002F000010101E06FF0010103EBC450284430BC60
:1003000000F09EBA420005D0C0F3C752524291425B
:1003100001DC0020704700EBC15070472DE9FE4F13
:10032000804681EA0300C00F0C46009021F0004196
:1003300023F00045B8EB0200A94105D24046214612
:1003400090461C460B46024623F00040104347D01F
:10035000270DC7F30A00C3F30A510290401A019017
:1003600040286BDAC3F3130040F4801B00989246D8
:1003700020B10023D2EB030A63EB0B0B0198594623
:10038000C0F14002504600F03AFA06460D4650468B
:100390005946019A00F042FA10EB0800614100242E
:1003A00087EA115284EAE7731A4340D0009A62B395
:1003B000019A012A4FEA075215DC001B61EB02018A
:1003C0004FF0004202EA0752CDE90042001C41F51D
:1003D000801132462B4600F079FA03B0BDE8F08F69
:1003E00040462146F9E7001B61EB0201001C41F584
:1003F000801300185B412018A2F5001747EB03019A
:1004000040EAD570B6196D4111E06D084FEA360625
:1004100045EAC0754FEA0752001B61EB0201001C60
:1004200041F5801149084FEA300000195141324628
:100430002B4603B0BDE8F04F00F039BA0098012216
:1004400040000023D0EB020263EBE07300982146EA
:100450004FEAE074B8EB000061EB0401E9E783F0D8
:1004600000435BE781F0004158E72DE9FE4F81EA48
:10047000030404F0004421F0004100944FF0000B0D
:1004800023F0004350EA01045ED052EA03045BD03B
:10049000C3F30A54C1F30A552C44A4F2F334019473
:1004A000A0FB0254C1F3130141F48011C3F3130301
:1004B00043F4801301FB024400FB034E840A970AB5
:1004C00044EA815447EA8357A4FB076802958D0AE2
:1004D00005FB07854FEA932C04FB0C542705029D6E
:1004E0004FEA065847EA1637B5EB08056EEB070CDE
:1004F000870E920E47EA811742EA8312A7FB020198
:10050000B6EB0B0164EB00042B0D43EA0C335E18D1
:1005100044EB1C50DA465146E7FB0201C5F31304D5
:100520004FEA0B3343EA14534FEA0432019C43EA87
:100530000603A4F10C040294009CCDE900B400F081
:10054000C5F903B0BDE8F08F00200146F9E72DE9B9
:10055000F04D81EA030404F0004B21F000451446FD
:100560004FF0000A23F0004150EA050220D054EA7F
:1005700001021DD0C5F30A570246C5F31303C1F3A8
:100580001300C1F30A5640F4801543F48013A7EB1F
:100590000608101BD64608F2FD3873EB050002D39F
:1005A00008F1010801E092185B41B8F1000F03DA8D
:1005B00000200146BDE8F08D00204FF48011064672
:1005C00084460EE0171B73EB050705D3121B63EB84
:1005D000050306434CEA010C49084FEA3000921823
:1005E0005B4150EA0107EDD152EA030012D082EAE2
:1005F000040083EA0501084305D0101BAB4106D275
:100600000122002306E000224FF0004302E06FF0D9
:10061000010253101AEB06004CEB085110EB0A00D4
:1006200041EB0B01BDE8F04D00F041B970B521F090
:10063000004303430CD0C1F30A550024D5EB040555
:1006400064EB0403D617AD1AB34102DB0020014668
:1006500070BD201841EB025170BDC10F80EAE070FF
:100660000844CA079623002100F0F3B8962300221D
:10067000114600F0EEB80EB540F233410291002170
:10068000CDE900110A460B4600F020F903B000BD89
:1006900000F0004220F00040C10DC0F3160040F40D
:1006A00000007F2901DA00207047962903DCC1F1A0
:1006B0009601C84001E096398840002AF4D04042B3
:1006C000704720F00040C10DC0F3160040F4000058
:1006D0007F2901DA00207047962903DCC1F19601D9
:1006E000C840704796398840704700F0004230F0AB
:1006F00000400AD0C10D01F56071C0F3160042EA56
:100700000151C2084007114370470020014670475D
:1007100001F0004330B421F0004150EA010206D05C
:100720000A0DA2F56072C1F31301002A02DC30BC8D
:1007300000207047440F44EAC104C100E01830BCF7
:1007400000EBC25000F07CB8002801DBC0F1004093
:10075000002901DBC1F1004181427047002801DB23
:10076000C0F10040002901DBC1F10041884270471F
:1007700030B50B46014600202022012409E021FA71
:1007800002F59D4205D303FA02F5491B04FA02F56E
:100790002844151EA2F10102F1DC30BD2DE9F05F05
:1007A0000546002092469B468846064681464024E0
:1007B0001BE02846414647462246FFF7B3FC534616
:1007C0005A46C01A914110D311461846224600F0ED
:1007D00016F82D1A67EB01084F462246012000212A
:1007E00000F00DF817EB00094E41201EA4F10104A2
:1007F000DFDC484631462A464346BDE8F09F202AC2
:1008000004DB203A00FA02F1002070479140C2F167
:10081000200320FA03F3194390407047202A06DB97
:10082000CB17203A41FA02F043EAE07306E041FABE
:1008300002F3D040C2F120029140084319467047AC
:100840000029A8BF7047401C490008BF20F00100E4
:10085000704710B4B0FA80FC00FA0CF050EA0104C2
:1008600004BF10BC704749B1CCF1200421FA04F454
:1008700011FA0CF118BF012121430843A3EB0C012D
:10088000CB1D4FEA00614FEA102042BF002010BC90
:10089000704700EBC35010440029A4BF10BC704740
:1008A000401C490008BF20F0010010BC704710B583
:1008B000141E73F1000408DA401C41F10001921883
:1008C0005B411A4301D120F0010010BD2DE9F04D2C
:1008D00092469B4611B1B1FA81F202E0B0FA80F281
:1008E00020329046FFF78BFF04460F4640EA0A008D
:1008F00041EA0B0153465A46084313D0114653EAC6
:10090000010019D0C8F140025046FFF70BFC054624
:100910000E46504659464246FFF771FF084305D040
:10092000012004E020463946BDE8F08D0020054353
:1009300046EAE0762C4337430A986305E40AA0EBC5
:1009400008000022FD0A44EA47540A3002D500207C
:100950000146E9E7010510196941DDE9084500197B
:100960006941BDE8F04DA2E70EB5C10F80EAE07025
:100970000844CA07002140F233438DE80E000A46BE
:100980000B46FFF7A3FF03B000BDC1F30A52C1F34A
:10099000130140F2FF3341F480119A4202DA002041
:1009A0000146704740F233439A42A2F2334202DCDE
:1009B0005242FFF7B7BBFFF722BF000030B5041E5D
:1009C00071F1000404DB4FF00044404264EB01018C
:1009D000141E73F1000405DB1C464FF00043524225
:1009E00063EB0403994208BF904230BD064C074DAB
:1009F00006E0E06840F0010394E8070098471034EF
:100A0000AC42F6D3FFF776FB7078000890780008C8
:100A10002DE9F04D00231A461B1A8A4103DB002002
:100A20000146BDE8F08DC1F30A52C1F3130141F450
:100A300080154FF0000BD10702D100186D41521EF6
:100A40000027044640F2FF11384601EB620A3E4699
:100A50008046024600204FF48011FFF763FBC21965
:100A60007141BB1846EB0100B4EB030C75EB000CB5
:100A700004D3E41A65EB000517460E46241908F165
:100A800001006D4180463428E3DDF91946EB06008C
:100A9000091BA84103D24FF0FF32134601E00022A8
:100AA00013461BEB070046EB0A51BDE8F04DFFF77C
:100AB000FEBE70B58C1810F8015B15F0070301D16C
:100AC00010F8013B2A1106D110F8012B03E010F8B1
:100AD000016B01F8016B5B1EF9D12B0705D40023D4
:100AE000521E0DD401F8013BFAE710F8013BCB1A76
:100AF000921C03E013F8015B01F8015B521EF9D56B
:100B0000A142D8D3002070BD70B50446006881684A
:100B1000C943C9071CD1816821F00101816002F03D
:100B20002BF905460FE000BF02F026F9401B022812
:100B300009D9A06A40F01000A062E06A40F001000C
:100B4000E062012070BD20688068C043C007EBD020
:100B5000002070BD10B50146406A826A12F0500F45
:100B600005D0006A026BBDE8104008461047816A54
:100B700041F40071816201688968C1F3424107292B
:100B80000CD1C16851B9816A21F480718162816A96
:100B9000C90403D4816A41F00101816201F08EF938
:100BA00010BD10B5406A816A41F040018162C16A9E
:100BB00041F00401C16201F083F910BD10B5406A33
:100BC00001F07DF910BD0000F8B50026044600963E
:100BD00000688168C943C90728D0816841F00101D4
:100BE0008160134813490068B0FBF1F000E0401E3B
:100BF00000900028FBD102F0BFF8054611E000BFCD
:100C000002F0BAF8401B02280BD9A06A40F010008D
:100C1000A062E06A40F00100E06284F824600120F4
:100C2000F8BD20688068C043C007E9D10020F8BD46
:100C3000D001002040420F0010B50146A02003F073
:100C4000A3FFC0B210BD0A460146A02003F0C4BFF6
:100C500010B51A4C207800282ED1194800F09AFCC3
:100C600000F006FD00F0C6FD00F01CFE04F0BCFD27
:100C70000021144803F0D0FC012005F029F80120E0
:100C800005F058F8012004F0FFFF00210E4801F0A4
:100C9000E9FC0E4801F030F803220D490B4801F041
:100CA000E7F90C490C4805F0FFFA01202070BDE877
:100CB00010400AA005F000BB10BD00007400002029
:100CC00028020020C0070020900600201C060020FB
:100CD00010040020C5010020800800200D0A2068B3
:100CE00077726F626F7420737465706572206D6FB8
:100CF000746F722064726976657220626F617264CB
:100D00002062737020696E6974206973206F6B2094
:100D100021000000FEE7000000B510488BB0002164
:100D2000828A0120520100924FF41252019242F243
:100D3000A04202920590CDE9060108900E2009908C
:100D40004FF41352CDE903216946054801F016FA24
:100D5000002801D000F064FF0BB000BD740000203B
:100D6000900600202DE9F041334CE078012850D165
:100D7000324E00273078012836D104F14405002195
:100D8000287804F06CFDA0702878072104F067FD36
:100D900060712878012104F062FD607028780221DA
:100DA00004F05DFD20722878032104F058FD607284
:100DB000A879E9786A7900EB01602979090401EBE7
:100DC000022108441E49E061884202DC494288420F
:100DD00001DAE16100E020B1E8790A2801D80A20AF
:100DE00000E0E879E0713770A17A1648012912D045
:100DF000022910D0E279E17A8A4200D9E171E169F1
:100E0000002906DA0068A16A00F57A60814200DDF7
:100E1000A062BDE8F0811E22E271012907D00229FB
:100E2000F7D1E16900688142F3DDE061F1E7E06953
:100E30000A28EEDCE761ECE774000020CB0100201B
:100E4000001BB7002000002010B5002958D0826B8D
:100E50004FF4D873046803EB0113E45814F004044E
:100E600094600468E4584DD0E40854600468E35882
:100E700003F00203D3604FF4DA73046803EB011349
:100E8000E45804F00F04146111620468E358C3F3DA
:100E90000723D3614FF4DC73046803EB0113E458B8
:100EA00014750468E458240A54750468E458240C42
:100EB00094750468E3581B0ED3754FF4DE73046811
:100EC00003EB0113E45814760468E458240A5476BA
:100ED0000468E458240C94760468E3581B0ED37617
:100EE0000368202289B11A610268536923F0500314
:100EF000536190F83C20222A0DD0322A0BD00FE00B
:100F0000426BA5E7640D1460B0E7DA6002685369CC
:100F100023F00A03ECE70268536923F40F4353619B
:100F200012220123002990F83C1006D0522915D036
:100F3000622916D0722906D115E042290ED0622905
:100F400008D0722908D080F83C3000BF01F0E4FBE3
:100F5000002010BD322107E0522105E080F83C203E
:100F6000F4E7222100E0422180F83C10EEE7000087
:100F700070B51348134E4FF400710568304601F008
:100F8000EDFE114C02460021207804F0A9FD2070EE
:100F9000B115304601F0E2FE02462078012104F04E
:100FA0009FFD207009480078A070280EE070280C82
:100FB0002071280A60710648A5710078E07170BD43
:100FC00020000020000C0140B0000020160000208E
:100FD00040000020094910B58A8A0949002088602C
:100FE0000A60C86008220A61044A3C320C18135C8B
:100FF000401CC0B223750828F8D310BD740000202F
:10100000D00300202DE9FC5F044690F82B00002659
:10101000884600287ED194F8290000287AD194F8D7
:10102000280080BB4FF0010A84F829A0002084F832
:101030002B00FE48DFF8FC93FD4D00682946C4E90B
:101040003B204F46D9F82400FFF71EF9F8632946E4
:10105000B86AFFF719F93864FD78257008EBC80104
:101060003F7901EB08104FF6FF71677001EA8008C5
:10107000BD4201D2284600E03846404504D9BD4271
:1010800012D33D4610E020E0BD4201D2284600E0E8
:10109000384640451ED2BD4201D9284600E03846B8
:1010A000404517D9BD42ECD9A4F8D85084F82AA0FD
:1010B00084F828A084F8D6A084F8D7A0D4F8E81043
:1010C000D4F8DC000844C4F8D000A07CBDE8FC5F84
:1010D00004F044BD4545D2D24745D0D2A8EB050027
:1010E000FFF7BBFAD9F82410FFF7CEF88346C9F80A
:1010F0004400A7EB0800FFF7B0FAD9F82810FFF773
:10110000C3F8C9F8480001215846FFF7FBF80190E1
:10111000284600E0EDE1FFF7AEFA00224FF08043F1
:1011200005F018FE834640460091FFF7A4FA0D46ED
:10113000074600224FF0804305F00CFE5A46009B04
:10114000FFF78DF9FFF7E4FA0199FFF79DF8E061E9
:101150000121D9F84800FFF7D5F8834638462946DB
:1011600000224FF0804305F0F5FD07460D466078FC
:10117000FFF781FA00224FF0804305F0EBFD3A467D
:101180002B46FFF76CF9FFF7C3FA5946FFF77CF8D7
:1011900020620746A4F8D880D4E93B05A84201DCC8
:1011A000012100E00021A174401B00D54042FFF75F
:1011B00054FA6062E169FFF72FF83946FFF72CF81F
:1011C000C4F8E400FFF77DFAC4F8E80029469AA0C5
:1011D00005F072F89AA0D4F8EC1005F06DF8E0690B
:1011E000FFF783FA02460B4697A005F065F8206AE0
:1011F000FFF77BFA02460B4696A005F05DF8D4F89F
:10120000E40010F1FF4F54D3D4E90701FEF7B2FF19
:101210000546D4E93B01401A00D54042FFF71DFACC
:101220002946FFF731F84F46C9F82C00FFF75DFA61
:1012300002460B468AA005F03FF8F96AE0690D46C0
:10124000FEF7F0FF8046E0612946206AFEF7EAFFDC
:10125000206225782846FFF709FA796A83460F4607
:10126000FEF7E0FF4146FEF7DAFF0121FFF74AF8FB
:101270003946FFF709F801465846FEF77BFFFFF7AE
:1012800020FA82B2A4F8D8206078854201D229469B
:1012900000E00146914207D9854200D22846A4F8D1
:1012A000D80084F82AA004E00020C4F8E400C4F8C0
:1012B000E800E069FFF705FAC4F8DC00206AFFF7F0
:1012C00000FAC4F8E00094F82A0000287FF4F0AE99
:1012D000B4F8D8002178401AFFF7BFF96249FEF749
:1012E000D3FFDFF888B1C9F834002078FFF7BEF9E2
:1012F0000746D8463BF82600FFF7B8F94D4DE96A96
:10130000FEF790FF696BFEF78DFF3946FEF732FF5F
:101310000121FEF7F7FF01465548FEF7B5FFFFF73D
:10132000D0F980B204EB86078146B88538F82600EC
:10133000FFF79CF9E96BFEF775FFFFF7C2F980B282
:10134000F8858046E8888000FFF790F9054649480F
:10135000C82100784843FFF789F92946FEF794FF32
:1013600005464846FFF782F92946FEF78DFFFFF74D
:10137000A8F981B2B98542463FA004F09DFF761CD2
:10138000142EB2DBB4F8D8006178401AFFF765F983
:101390003549FEF779FF274EB06339A004F08CFF82
:1013A000DFF8D0B000256078FFF760F9DFF8BC8087
:1013B000074638F82500FFF759F91E4E316BFEF746
:1013C00031FFB16BFEF72EFF3946FEF7D3FE012148
:1013D000FEF798FF01462648FEF756FFFFF771F922
:1013E000C5F1130180B204EB8107814627F87C0F19
:1013F00038F82500FFF73AF9316CFEF713FFFFF7D5
:1014000060F980B278808046F0888000FFF72EF97E
:1014100006469BF80000C8214843FFF727F93146EC
:10142000FEF732FF064648462EE00000200000206E
:101430000000A041280000200D0A736C3A256400CA
:101440000D0A746C3A2564000D0A6661643A2566DB
:10145000000000000D0A6664643A25660000000082
:101460000D0A667A3A25660000401C467877000827
:101470000024F449050000200D0A25642C25640091
:101480000D0A2D2D2D000000FFF7F0F83146FEF774
:10149000FBFEFFF716F981B239804246AFF2280011
:1014A00004F00AFF6D1C142DFFF67DAFD4F8E81090
:1014B00011A09C3404F000FF11A0216C04F0FCFE8C
:1014C00011A0616C04F0F8FEAFF29400616D04F0BD
:1014D000F3FEAFF29400216D04F0EEFE14F88A1CC6
:1014E0000BA004F0E9FEA18F0CA09C3C04F0E4FEEC
:1014F000DEE5BDE8FC9F00000D0A70733A2564002C
:101500000D0A61733A2564000D0A64733A2564007C
:101510000D0A6469723A2564000000000D0A7370B8
:10152000643A25640000000070B5154CE079FFF7BF
:101530009DF81449144D0860E069E062A16A814297
:101540000DD02A468842126818DD914202DA511AFB
:10155000142900DCA0620D48D0F848118847A06A21
:101560002968A0F10A020A4C914203DD143291422B
:1015700000DA0846FFF771F8206070BD891AE7E7C6
:10158000740000203C0000204400002028020020BD
:101590003800002010B50446012084F82B000848CC
:1015A000C4F848010748C4F84C01204600F00EF882
:1015B0000548C4F850012046BDE8104000F01EB8B0
:1015C000CD15000805100008FD150008002180F861
:1015D000281080F82B1080F8291080F82A10C0F805
:1015E000CC10C0E9021180F8D41080F8D510012287
:1015F00080F8D62080F8D72081617047012180F8DB
:101600002B107047014801F097B900004C060020EC
:10161000014801F091B90000C008002030B590F8F1
:1016200040500124AC40C56B6C6004686360436843
:10163000102B036803D099600068C26030BD9A60C7
:101640000068C16030BD7047064810B500780128B9
:1016500004D10548D0E9041004F056F803490120EC
:10166000087010BD760000202800002081000020B6
:101670002DE9F041F020FFF7DFFA2E4CA073F120A6
:10168000FFF7DAFAE073F220FFF7D6FA2A4E207459
:10169000E17BDFF8A8803170294F88F80000A07B3B
:1016A000A082208BE0824FF400752946384601F075
:1016B00055FB012801D0234809E00A2001F050FA27
:1016C0002946384601F04AFB012801D1002060621A
:1016D0001D4F656A28463D60FEF7BFFF1B49086045
:1016E0001B48A56205602562307800F0B9F8054610
:1016F000307800F0FFF917A004F0DEFDA18A1CA0ED
:1017000004F0DAFD1FA0396804F0D6FDE18A25A0B7
:1017100004F0D2FD2846FEF7E8FF02460B4628A05B
:1017200004F0CAFD98F80010BDE8F0412BA004F0C9
:10173000C3BD0000740000201C0000200500002034
:10174000000C014040420F00200000203800002023
:10175000440000200D0A20E8AFBBE58F96E69DBF50
:10176000E58DA1E8AEBEE7BDAEE58F82E695B0009F
:101770000D0A20E9A9B1E58AA8E599A849443A25C6
:10178000780000000D0A20E9A9B1E58AA8E599A82A
:10179000E5BD93E5898DE4BD8DE7BDAE3A256420B6
:1017A000000000000D0A20E5BD93E5898DE695B0A7
:1017B000E68DAEE59CB0E59D80EFBC9A2564000007
:1017C0000D0A20E9A9B1E58AA8E599A8E794B5E64C
:1017D000B5813A25322E3366410000000D0A20E91A
:1017E000A9B1E58AA8E599A8E7BB86E588863A25E8
:1017F00064000000094810B5074941631C390163C2
:1018000000F064FE08B100F00BFAFFF785FABDE8BE
:10181000104004F02DB80000EC03002090060020DA
:101820000E4A10B59388052806D00A2806D0142839
:1018300006D0282807D105E0002104E0012102E0BC
:10184000022100E0032123F4407040EA0124948047
:101850002146002004F066F8204610BD0400002058
:1018600070B50E4C0546A0780002FEF7FFFE6169D8
:10187000FEF7D8FCFEF739FF06460C462846FEF771
:10188000FAFE0022064BFEF7F0FD32462346FEF735
:101890005EFEBDE87040FEF73BBF00000400002084
:1018A0000000064010B500F0CDF800F0E1F8274C3C
:1018B0000020A18804F036F8012001F051F9E188F8
:1018C000012004F02FF8012001F04AF921890220BB
:1018D00004F028F8012001F043F96189032004F0A5
:1018E00021F8012001F03CF9A189042004F01AF844
:1018F000012001F035F9E189052004F013F80120F9
:1019000001F02EF9218A062004F00CF8012001F0E4
:1019100027F9618A072004F005F8607800F0B8F82C
:10192000012001F01DF9A078FFF77AFF012001F0F6
:1019300017F9002000F0DEF8012001F011F900F0A5
:1019400007F8BDE8104004F07BB800000400002058
:1019500010B5002003F0AEFF01461BA004F0ACFC64
:10196000012003F0A7FF01461BA004F0A5FC022004
:1019700003F0A0FF01461CA004F09EFC032003F02E
:1019800099FF01461BA004F097FC042003F092FF8E
:1019900001461CA004F090FC052003F08BFF0146DB
:1019A0001CA004F089FC062003F084FF01461DA062
:1019B00004F082FC072003F07DFF0146BDE81040E3
:1019C0001CA004F079BC00000D0A204354524C3A8C
:1019D00030782578000000000D0A20544F525155F0
:1019E000453A3078257800000D0A204F46463A30B7
:1019F000782578000D0A20424C414E4B3A3078252C
:101A0000780000000D0A2044454341593A307825BA
:101A1000780000000D0A205354414C4C3A30782590
:101A2000780000000D0A2044524956453A30782586
:101A3000780000000D0A205354415455533A307831
:101A40002578000010B5094C01220221204601F042
:101A50008EF9052001F084F800220221204601F0D1
:101A600086F9BDE81040052001F07AB8000C01406D
:101A700010B5052001F074F801221146034801F069
:101A800076F9BDE81040052001F06AB8000C01406D
:101A9000174910B58A88202810D008DC02280FD0FA
:101AA00004280FD008280FD0102807D10EE04028B6
:101AB0000ED080280ED0B0F5807F0DD005200CE030
:101AC00001200AE0022008E0032006E0042004E0F0
:101AD000062002E0072000E0082022F0780242EA17
:101AE000C0048C802146002003F01CFF204610BD5E
:101AF00004000020064910B5CA8802F47F4404435C
:101B0000CC802146012003F00DFF204610BD0000CF
:101B1000040000204FF4807001F036B82DE9F8433E
:101B2000204C207901283AD104F14C00C178A173EE
:101B30000279E27340792074F020FFF784F8E17BAA
:101B4000F120FFF780F8217CF220FFF77CF8F020ED
:101B5000FFF772F88046F020FFF76EF8F120FFF7EC
:101B60006BF80646F220FFF767F80546F220FFF70C
:101B700063F83046FFF774FE07463046FFF770FE05
:101B80003846FEF7B2FD02460B46414606A00095D8
:101B900004F092FB0DA004F08FFB00202071BDE843
:101BA000F8830000740000200D0A2049443A307880
:101BB00025782063757272656E743A25322E33660D
:101BC0004120737465703A25642000000D0A20706E
:101BD0006172616D657465727320757064616461B2
:101BE0002073756363656573212E2E2E2E2E2E00B5
:101BF00000F052B807480849037808484A68012BA2
:101C0000016804D0002B01D1891A0160704711448A
:101C1000FBE700007D000020E801002020000020FC
:101C2000FEE700002DE9F041072003F043FE174DC9
:101C300010F0FF0624D00121304603F010FE144FAF
:101C4000012400B13C700221304603F008FE00B1CF
:101C50003C700521304603F002FE00B12C700721D4
:101C6000304603F0FCFD18B10A48007800B92C702A
:101C7000012000F075FF0021072003F053FE01E072
:101C8000002028703046BDE8F081000004000020EC
:101C9000C0010020C101002030B514480068426A2C
:101CA00013484261416A436BC1EB01411144CC1AB4
:101CB00044604FF40044456807E0416A491E4162B0
:101CC000C1EB01411144CD1A4560A542F5DA094C3A
:101CD000A54208DC416A491C4162C1EB0141114443
:101CE000CD1A4560F4E7416330BD000000080020D4
:101CF000E80100200080FFFFF8B5002504460095AC
:101D000090F82400012808D0012084F824002046FF
:101D1000FEF7FAFE060002D04BE00220F8BDA06AF2
:101D200020F4885040F00200A062022001F0F2FB93
:101D300022490968B1FBF0F0400000E0401E00902D
:101D40000028FBD12046FEF73FFF2068816841F064
:101D50000801816001F010F8074604E001F00CF87A
:101D6000C01B0A2811D8206880680007F6D42068B4
:101D7000816841F00401816000F0FEFF07460EE03B
:101D800000F0FAFFC01B0A2809D9A06A20F002005F
:101D900040F01000A06284F824500120F8BD2068B3
:101DA00080684007ECD4A06A20F0020040F00100F7
:101DB000A06284F824503046F8BD0000D001002015
:101DC000F8B50024009490F824202546012A12D06A
:101DD000012280F824204A681F23072A0DD20668B2
:101DE000776B521E02EB820293409F430B68934035
:101DF0001F43776319E00220F8BD06680D2A0AD256
:101E0000376BD21F02EB820293409F430B689340D3
:101E10001F43376309E0F76A0D3A02EB82029340F1
:101E20009F430B6893401F43F7620A6807230668C5
:101E30000A2A0AD3F7680A3A02EB420293409F4308
:101E40008B6893401F43F76008E0376902EB42025A
:101E500093409F438B6893401F4337610A68102A61
:101E600001D0112A20D1124B02689A4217D19368EF
:101E70001B0219D4936843F4000393600968102986
:101E800012D10C490C4A0968B1FBF2F101EB810156
:101E9000490000E0491E00910029FBD104E0816A5D
:101EA00041F020018162012480F824502046F8BDD1
:101EB00000240140D001002040420F0070477047CD
:101EC000704700002DE9F0414FF0000704003D4647
:101ED0007ED0A06A002628B9E66284F824602046F5
:101EE00000F07EF82046FEF70FFEA16AC90600D476
:101EF00020B1A06A40F01000A06269E0A16A21F45C
:101F0000885141F00201A1626268E169E3680A4315
:101F100047EA43010A43A1684FF48077B94209D0E8
:101F2000012907D05FF00001D4F814C0BCF1010F03
:101F300002D00AE03946F7E7F3B1A36A43F0200381
:101F4000A362E36A43F00103E3622368D3F804C0A9
:101F50002CF4694C4CEA010CC3F804C021688B686E
:101F6000DFF870C003EA0C0313438B60A168B94229
:101F70000BD0012909D00CE0DFF85CC0A3690CEBA1
:101F800043330B4343F40061DFE7218A0D05A5F5D8
:101F900080152168CB6A23F470032B43CB62216840
:101FA00089680E4B1940914208D1E662A16A21F07E
:101FB000020141F00101A162BDE8F081A06A20F0B8
:101FC000020040F01000A062E06A40F00100E06210
:101FD0000120F1E7FDF7E1FF00E0FFFFFE0E1FFF2C
:101FE00070B586B0002506460095019502950395CB
:101FF00000681A4988422ED11949886940F4007056
:102000008861886900F400700490886940F00400D9
:1020100088618869694600F00400049030200090CF
:10202000032001900F4800F0BBFD104C0E48C4E99E
:1020300000058020C4E902508000206180006061BA
:102040002020C4E90605204600F020FD08B1FFF776
:10205000E7FD3462666206B070BD000000240140F6
:102060000010024000080140080002404C06002019
:102070002DE9F047894604463B4900683B4F0E1D59
:102080009046884201D0B84207D1306810F4702FD2
:1020900003D001252846BDE8F08794F824000128E4
:1020A0000CD0012084F824002046FEF78DFD0500A9
:1020B0004FF0000004D084F82400EBE70220EAE7A8
:1020C000A16A40F60162914341F48071A1622168E6
:1020D000B94218D1326812F4702F14D0A16A41F4B9
:1020E0008011A1623168490505D5A16A21F400512A
:1020F00041F48051A162A16AC9040AD5E16A21F0C4
:102100000601E16206E0A26A22F48012A262496836
:10211000E9E7E06284F82400216A15488862216AB0
:102120001448C862216A1448086321686FF00200ED
:1021300008602068816841F48071816021684346AD
:102140004A464C31206A00F0D3FC20688168C1F314
:1021500042410729816803D041F48011816099E7E9
:1021600041F4A001FAE700000024014000280140EA
:10217000550B0008BD0B0008A30B0008F0B50C7D43
:10218000012303FA04F20468D4F800524E6A25F4DD
:102190007C5503EB06231D43C4F800520368D3F8B3
:1021A0001C429443C3F81C424FF41073CD691C1DAC
:1021B000BDB90568D5F80C629643C5F80C628E89E6
:1021C0004D684F6966F31F45066803EBC707F55175
:1021D0000E890D684F6966F31F45066804EBC70753
:1021E000F551CD69012D17D10568D5F80C6216435C
:1021F000C5F80C620E884D684F6966F31F45066886
:1022000003EBC703F5500D89CB684E6965F31F4397
:10221000056804EBC6042B518B69002B0368D3F8C7
:10222000044211D054EA0204C3F804420B69002BA3
:102230000368D3F8144209D054EA0204C3F81442E4
:10224000096A012904D009E09443EDE79443F5E7D6
:102250000168D1F81C321343C1F81C320068D0F871
:10226000001221F00101C0F800120020F0BD0000B2
:1022700010B5044604A004F01FF82046BDE8104045
:10228000002100F0EFB900000D0A43414EE587BA86
:10229000E994990D0A0000002DE9F0410446006818
:1022A0000026C168C1F300134169C1F3C0021021C7
:1022B00013B10AB14E01C160206802694369C2F3DB
:1022C0000012C3F380131AB113B146F480660161A2
:1022D000216848694FF00105C043C0074ED18A68A4
:1022E0007648904323D000208B68754A9A4320D0CB
:1022F00000228F68734BBB431DD00023104318434B
:102300003CD088688A68C0F340008B68C2F34022E2
:1023100003F001031043184329D04A69204622F0F4
:1023200001024A6194F83C10122906D00AE001200B
:10233000DAE70122DDE70123E0E701684A6922F4D8
:102340000F424A6190F83C10422908D0522908D027
:10235000722908D080F83C5000F0A0FA09E0222150
:1023600002E0322100E0622180F83C10F4E746F4FC
:10237000006620688168544A114381602168C868FA
:10238000496910F0030FC1F3400104D019B10021D5
:102390002046FEF759FD21680869496910F0030FCE
:1023A000C1F3001104D019B101212046FEF74CFD04
:1023B000206C3043206420688169426911F0010F6C
:1023C0004369C2F30022C3F3C03305D022B11BB16D
:1023D000216C41F0010121648169C1F3400341692D
:1023E000C1F340224169C1F3C0312BB122B119B10F
:1023F000216C41F0020121648169C1F380034169CC
:102400004269C1F38021C2F3C0322BB121B11AB1AC
:10241000216C41F004012164816911F0700F08D032
:1024200000224169C1F3C0234169C1F3C03112B137
:1024300021E00122F5E7F3B1E9B1816901F0700112
:1024400040292FD006DC102909D020290BD03029B3
:102450000DD123E0502929D0602908D12AE0216C30
:1024600041F0080102E0216C41F010012164816912
:1024700021F070018161206C00280DD021680420BA
:10248000486084F83C502068416948F65B7291438B
:1024900041612046FFF7ECFEBDE8F081216C41F080
:1024A0002001E3E7216C41F04001DFE7216C41F0BE
:1024B0008001DBE7216C41F48071D7E70100000463
:1024C0000001000800000110090501002DE9F0419C
:1024D00004004FF0000504D094F83C00002618B129
:1024E00007E00120BDE8F08184F83D60204600F05F
:1024F00083F8022084F83C002068016821F0020182
:1025000001602068016841F00101016000F034FCC5
:1025100007464FF0030804E000F02EFCC01B0A2819
:1025200053D820684068C007F6D021684868C007C3
:1025300058D0A069012801D145F08005E069012843
:102540002FD025F04000226A012A2DD020F0200053
:10255000626A012A2BD020F01000A26A012A29D039
:1025600020F00800E26A012A27D020F004000A685F
:1025700022F0FC0202430A60D4E902010843D4E9D4
:102580000412114308436168491E08432168C86169
:102590002068016821F00101016000F0EDFB0546B3
:1025A00018E045F04000CEE740F02000D0E740F0D2
:1025B0001000D2E740F00800D4E740F00400D6E76E
:1025C00000F0DAFB401B0A2804D904F83C8F0320F2
:1025D000667087E720684068C007F1D120684068CE
:1025E000C00703D0042084F83C007AE72664012069
:1025F00084F83C00002075E710B586B000210091FA
:1026000001910291039100681349884222D1134835
:10261000C16941F00071C161C16901F000710491AB
:10262000816941F00401816180690D4C00F0040072
:1026300004904FF4006000906946204600F0B0FA24
:10264000A0140090022001900120039069462046CA
:1026500000F0A6FA06B010BD006400400010024071
:102660000008014030B511B1012925D010E090F8E3
:102670003C20222A28D090F83C20422A24D000BFB7
:1026800090F83C20622A1FD090F83C20722A1BD080
:1026900090F83D20012A17D0012280F83D206222C7
:1026A00090F83C40722389B1122C19D0222C18D0FA
:1026B000422C19D0322214E090F83C20322A03D068
:1026C00090F83C20522ADBD1022030BD122C05D0DC
:1026D000322C06D0522C07D0222202E0422200E007
:1026E000522280F83C2001E080F83C300022026455
:1026F00003685C6948F601752C435C6180F83D20F5
:1027000000680029416904D041F050014161002076
:1027100030BD41F00A01F9E770B50446114A12488C
:102720000021136805881148AB420CD1104B551895
:102730002D7D5D54491CC9B20829F8D301210170CF
:102740000C48C17001E00021017000212046FFF714
:1027500089FF022804D12068416941F00A014161E2
:1027600070BD0000EC0300208800002077000020EE
:10277000B8000020C801002070B5036899684901BD
:1027800005D49968090102D49968C9007ED590F8EA
:102790003D10012907D0012180F83D1099684901B9
:1027A00003D5002207E0022070BD9968090101D518
:1027B000012200E002224FF4C07101EB02115C58CB
:1027C00004F001045C50036B9C68ECB30668755818
:1027D0002543DC685B6844EAC3031D437550036B03
:1027E0001C7C04F00F041C614FF4C273046803EBFB
:1027F0000213E55825F00F05E5500468E558066B0F
:1028000036693543E550036B4FF4C47505EB02158B
:102810001C7DD3F8153044EA032304686351036B2D
:102820004FF4C67505EB02121C7ED3F8193044EA4A
:1028300003230468A35090F83C20222A10D0322AA7
:1028400010D0622A23D000E001E012220BE00468DD
:102850006558DE681B88354345EA43536350BEE73D
:10286000422200E0522280F83C200022026480F8DC
:102870003D200268535843F00103535000684169FA
:1028800048F6017211434161002070BD01E07222DF
:10289000E9E7042180F83C100120F6E770470000CA
:1028A00010B590F821100024022903D0042181637F
:1028B00001243DE001680A6822F00E020A60016806
:1028C0000A6822F001020A601A4A0168914201D1A5
:1028D000012121E0174A1432914201D110211BE05D
:1028E000144A2832914201D1891515E0114A3C322F
:1028F000914201D189140FE00E4A5032914202D127
:102900004FF4803108E00B4A6432914202D14FF417
:10291000801101E04FF08071064A083A51600121B0
:1029200080F82110002180F82010416B01B1884708
:10293000204610BD080002402DE9F05FC16B0C6815
:1029400001680B68D0F840C0042202FA0CF2494D2D
:10295000DFF824A1494E4A4FDFF828B1DFF828E11B
:1029600022422CD05A072AD50A68920603D40A6854
:1029700022F004020A600168A94201D1042219E090
:10298000514501D1402215E0B14202D14FF480629D
:1029900010E0B94202D14FF480420BE0594502D118
:1029A0004FF4802206E0714502D14FF4800201E02D
:1029B0004FF080622F4908394A60C16A3BE04FF00E
:1029C000020808FA0CF818EA040F4FF000094FF05B
:1029D000010235D05FEA837832D50B689B0605D4B7
:1029E0000B6823F00A030B6080F821200168A942DC
:1029F00001D1022219E0514501D1202215E0B14256
:102A000002D14FF4007210E0B94202D14FF40052EB
:102A10000BE0594502D14FF4003206E0714502D176
:102A20004FF4001201E04FF00072124908394A6079
:102A300080F82090816A00291AD0BDE8F05F08472D
:102A4000082505FA0CF5254212D01B0710D50B6896
:102A500023F00E030B6090F84010C36B02FA01F1F3
:102A60005960826380F8212080F82090016BE2E7B2
:102A7000BDE8F09F080002401C0002403000024008
:102A800044000240580002406C00024030B548B398
:102A900008C8154914221944B1FBF2F18900C16339
:102AA00012498163022141771A6843F6F0718A4323
:102AB000D0E900142143D0E902452C4321430469A5
:102AC0002143446921438469214311431960002152
:102AD00041628162C16201634163012242770177F1
:102AE000084630BD012030BDF8FFFDBF00000240A8
:102AF00070B5044690F82000002501280CD0012074
:102B000084F8200094F821600020012E06D084F87B
:102B100020000225284670BD022070BD022684F8E0
:102B20002160A0632068066826F001060660204642
:102B3000FEF774FDE06A00282068016802D041F0C9
:102B40000E0106E021F0040101602068016841F0F7
:102B50000A0101602068016841F001010160D9E7C4
:102B600070B5044600F008F90546601C02D0044820
:102B70000078044400F000F9401BA042FAD370BD75
:102B8000D401002070470000044910B50A680242D1
:102B900002D00860FFF7F6FF10BD000014040140EA
:102BA0002DE9F84FDFF890A100220AF1040B14463A
:102BB00001274FF00F090BF1040E00BF0B6807FA55
:102BC00004F52B40AB4274D1DFF870C14E68A6EB20
:102BD0000C0866452BD00DDC032E34D005DC36B353
:102BE000012E19D0022E2FD11BE0112E16D0122E3D
:102BF0002AD119E0B8F5881F19D006DCB8F5803F56
:102C000015D0B8F5801F1FD111E0B8F5001F0ED008
:102C1000B8F5041F18D10AE0CA6815E0CA68121D89
:102C200012E0CA6808320FE0CA680C320CE08A6809
:102C30002AB1012A4FF0080203D0456104E00422C2
:102C400002E0056100E00022FF2B01D8064601E00A
:102C500000F104064FEA840501D9A5F12005D6F854
:102C600000C009FA05F82CEA080C02FA05F54CEA4E
:102C7000050CC6F800C04D68ED0057D5304DAE6963
:102C800046F00106AE61AD6924F0030605F00105CA
:102C900000952C4D06EB050CDCF80850A6074FEA12
:102CA000167809FA08F6B543274EB04202D100263D
:102CB00010E03BE0254EB04201D101260AE0244E4F
:102CC000B04201D1022605E0224EB04201D10326D6
:102CD00000E0042606FA08F62E43CCF808604D689A
:102CE000DAF80060ED03554601D51E4300E09E432F
:102CF0002E604D68DBF80060AD035D4601D51E43D4
:102D000000E09E432E604D68DEF80060ED027546DF
:102D100001D51E4300E09E432E604D68AD020E4D6E
:102D20002E6801D51E4300E09E432E60641C102CCB
:102D3000FFF444AFBDE8F88F00040140000011101B
:102D4000001002400000014000080140000C01405A
:102D500000100140001401400C040140806808404C
:102D600000D001207047C2684A40C26070470AB173
:102D7000016170470904FBE7014880687047000063
:102D8000D401002090F83D007047000070B50400A9
:102D90001BD094F83D00002520B984F83C50204613
:102DA00000F0F2FA242084F83D002068016821F048
:102DB0000101016000F032FD404A6168914201D892
:102DC0003F4900E03F49884201D2012070BD3E49A1
:102DD0002368B0FBF1F159606368934206D94FF460
:102DE000967359434FF47A73B1FBF3F12368491C8E
:102DF00019626168914210D84900401EB0FBF1F29F
:102E0000521CC2F30B02042A01D2042022E0B0FBC0
:102E1000F1F0401CC0F30B001CE0A368CBB301EB46
:102E2000C10202EB0116421EB2FBF6F2521C42F442
:102E30008042120536D06BB301EBC10202EB0111E7
:102E4000401EB0FBF1F0401CC0F30B0040F480408A
:102E500040F400402168C861D4E9070108432168B3
:102E60000860D4E90310084321688860D4E90501AB
:102E700008432168C8602068016841F001010160D1
:102E80002564202084F83D00256384F83E5000200E
:102E900070BD00E008E001EB4106421EB2FBF6F215
:102EA000521CC6E70120D5E701EB4101401EB0FBF3
:102EB000F1F0401CC0F30B00CAE70000A08601003F
:102EC00080841E0000093D0040420F002DE9FF4FA5
:102ED00081B099468B4604464FF00108FFF74CFF3E
:102EE000054694F83D0020287BD1192301224D4945
:102EF0002046009501F0AFFF002872D194F83C0005
:102F000001286ED0012084F83C0020680168C907C0
:102F100003D1016841F0010101602068016821F4DA
:102F200000610160242084F83D00002626643E48AC
:102F3000E06220272068016841F4807101604B46FF
:102F400000224FF001112046009501F084FF002877
:102F500058D121680BF0FE000861FFF70DFF2168D2
:102F6000054648694969C0F3400094F83D20C1F323
:102F700080214FF0A00A12E0B9F1000F04D0FFF752
:102F8000FBFE411B494501D984F83DA021684869F1
:102F90004969C0F3400094F83D20C1F38021084303
:102FA00001D1A02AE8D184F83D7020684169C94365
:102FB000890717D4016841F40071016020684169F4
:102FC00080691923012217492046009501F043FF2B
:102FD000C0B984F83D7084F83C60002005B0BDE8BD
:102FE000F08F1DE0016841F40071016021686FF409
:102FF00080604861192301220A492046009501F0AA
:103000002AFF08B10320E9E74146039808F10108C7
:1030100081428FD384F83D7084F83C600120DDE765
:103020000220DBE7020010000000FFFF2DE9FF4F48
:1030300083B09A46DDE9118793460446DDF8409057
:10304000FFF79AFE054694F83D00202872D1192317
:1030500001227B492046009501F0FDFE0028F5D1B4
:1030600094F83C00012865D0012084F83C002068D9
:103070000168C90703D1016841F0010101602068BE
:10308000016821F400610160222084F83D004020A5
:1030900084F83E0000262664C4F82490A4F82A8010
:1030A0006848E062608D2085CDE9007553465A4638
:1030B0002046049901F0E0FD28B1206C84F83C60C2
:1030C000042851D075E0208DDFF87C8168B101289B
:1030D00014D00228206801681ED041F4806101608C
:1030E00020684169806900909BE02068416981699E
:1030F0000091016841F40071016092E0206801686C
:1031000021F48061016072B6206841698169009193
:10311000016841F400710AE041F40061016072B697
:103120002068416981690091016821F48061016032
:1031300062B676E081E0032850D801280BD002283F
:103140003B464FF0000241462046009512D001F068
:1031500082FE70BB13E02A463946204601F0F0FE9D
:1031600030B1206C202824D0012007B0BDE8F08FBA
:1031700020684BE001F06FFED8B972B61BE0206802
:10318000016821F48061016072B620680169606A9B
:10319000421C62620170208D401E2085608D401EA1
:1031A00060853B46002241462046009501F053FED3
:1031B00008B10320D9E72068016841F4007101607B
:1031C00020680169606A421C62620170208D401EA5
:1031D0002085608D401E608562B6C9E72A46394663
:1031E000204601F0ADFE0028BBD120680169606A6D
:1031F000421C62620170208D401E2085608D401E41
:10320000608520684169C94349070AD40169606A39
:10321000421C62620170208D401E2085608D401E20
:103220006085208D002886D1202084F83D0084F818
:103230003E6084F83C60002097E7022095E700009C
:10324000020010000000FFFF040001002DE9FF4F05
:1032500083B09A46DDE9118793460446DDF8409035
:10326000FFF78AFD064694F83D0020287DD11923FA
:10327000012243492046009601F0EDFD00287CD153
:1032800094F83C00012878D0012084F83C002068A4
:103290000168C90703D1016841F00101016020689C
:1032A000016821F400610160212084F83D00402084
:1032B00084F83E0000252564C4F82490A4F82A80F0
:1032C0003048E062608D2085CDE9007653465A464D
:1032D0002046049901F048FD80B3206C84F83C50EE
:1032E000042848D008E032463946204601F059FE0D
:1032F00030B1206C042839D0032007B0BDE8F08F2E
:10330000606A411C6162216800780861208D401E5E
:1033100080B22085618D491E618521684A69D2434A
:1033200052070BD468B1606A421C6262007808617F
:10333000208D401E2085608D401E6085208D0028D8
:10334000D1D132463946204601F05EFD0028D0D169
:1033500054F83D0B016841F400710160202004F82D
:103360001E09E57765770020C7E706E02068016859
:1033700041F4007101600120BFE70220BDE70000B9
:10338000020010000000FFFF10B586B00021009180
:103390000191029103910068104988421BD1104CA1
:1033A000A06940F00800A061A069694600F008002B
:1033B00004904FF44060009012200190012003908F
:1033C0000848FFF7EDFBE06940F48000E061E06948
:1033D00000F48000049006B010BD000000580040CA
:1033E00000100240000C014002488168027811443C
:1033F00081607047D4010020074810B5016841F092
:1034000010010160032000F073F8002000F006F8BE
:1034100000F024F8002010BD0020024070B50D4DD2
:1034200004464FF47A712878B1FBF0F00A49096834
:10343000B1FBF0F000F032FD48B9102C07D20022A9
:103440002146501E00F034F800206C6070BD012051
:1034500070BD0000D4010020D00100200C4808B548
:10346000816941F001018161816901F001010091EF
:10347000C16941F08051C161C06900F08050009085
:103480000448416821F0E06141F00071416008BDED
:10349000001002400000014000F01F020121914095
:1034A0004009800000F1E020C0F8001170470000E2
:1034B000F0B40E4B1B680C46C3F30223C3F107059F
:1034C000042D00D90425191D072901D2002300E08D
:1034D000DB1E012606FA05F1491E214099409E4057
:1034E000761E16403143F0BC02F06DB90CED00E0E1
:1034F000064900F0070208684FF6FF03184040EA4B
:103500000220034A10430860704700000CED00E001
:103510000000FA0510B529A401461DCC86B08DE83F
:103520001D002AA02A4C006804900020012923D005
:1035300002293AD010291DD161682268D20119D51B
:10354000C1F38342C9031DF8020009D5616804AACA
:10355000C1F34041515C1F4AB2FBF1F1484301E025
:103560001D4948436168490204D440005FF00301EB
:10357000B0FBF1F006B010BD226AC2F301210129AF
:1035800003D1920701D5C803F4E7022905D1626A85
:10359000920702D549F64040ECE70329EAD12168B9
:1035A0008903E7D54FF22440E4E700F047F961686A
:1035B000C1F38131491C4900DAE700000203040528
:1035C000060708090A0B0C0D0E0F1010010200006F
:1035D0000010024000127A0000093D002DE9F84376
:1035E00005460078354CC00754D0E0690026C0007D
:1035F00008D4E06940F08050E061E069012600F005
:10360000805000902E480168C90512D40168804698
:1036100041F480710160FFF7AFFB074605E000BF92
:10362000FFF7AAFBC01B642823D8D8F80000C00508
:10363000F6D5206A10F4407021D0A98801F44071B9
:1036400081421CD0206A1F49012220F440700A6088
:1036500000220A602062C00711D0FFF78DFB0746E9
:1036600041F2883808E000BFFFF786FBC11B4145E7
:1036700002D90320BDE8F883206A8007F4D5206AC8
:10368000696820F44070084320621EB1E06920F0B0
:103690008050E0612878800705D56068A96820F42B
:1036A0004040084360602878C00605D56068E96836
:1036B00020F48000084360600020DBE70010024037
:1036C00000700040400442422DE9F047DFF83C81A1
:1036D00005460E46D8F8000000F00700B0420CD2B4
:1036E000D8F8001021F007013143C8F80010D8F8CD
:1036F000000000F00700B04263D12878444C8007F6
:1037000005D56068A96820F0F0000843606028785B
:10371000C00745D06868012816D02168022816D055
:10372000890700294DDA616821F0030101436160D6
:10373000FFF722FB6968074641F2883001290FD064
:103740000229814619D027E021688903E9E7890128
:10375000E7E700BFFFF710FBC11B494501D918E09F
:1037600081466068C0F381000128F3D118E000BFF2
:10377000FFF702FBC11B49450BD86068C0F381000D
:103780000228F5D10CE000BFFFF7F6FAC11B49454E
:1037900002D90320BDE8F087606810F00C0FF3D168
:1037A000D8F80010404601F00701B1420BD901687A
:1037B00021F0070131430160006800F00700B042CA
:1037C00001D00120E6E72878400705D56068E96860
:1037D00020F4E060084360602878000706D5606840
:1037E000296920F4605040EAC100606000F036F8BA
:1037F0006168084AC1F30311515CC840064908607A
:103800000020FFF70BFE0020C4E70000002002406C
:1038100000100240C8770008D00100200448054984
:1038200000684968044AC1F30221515CC8407047EE
:10383000D001002000100240D87700080448054954
:1038400000684968044AC1F3C221515CC84070470E
:10385000D001002000100240D877000812A185B0E6
:103860000FC98DE80F0014A0144A00680490516835
:10387000134801F00C03042B10D0082B0ED1C1F318
:103880008343C9031DF803000AD5516804AAC1F394
:103890004041515C0A4A5043B0FBF1F005B070471B
:1038A00008494843FAE7000002030405060708092F
:1038B0000A0B0C0D0E0F1010010200000010024048
:1038C00000127A0000093D002DE9F84F0446007807
:1038D000B94DC00748D06868C0F38100012807D0FF
:1038E0006868C0F38100022809D16868C00306D562
:1038F0002868800338D5606800286FD034E060689D
:10390000B0F5803F0BD010B1B0F5A02F11D02868D2
:1039100020F480302860286820F4802002E02868A5
:1039200040F480302860606888B1FFF725FA0646C9
:1039300009E0286840F480202860F0E7FFF71CFACF
:10394000801B642875D828688003F7D50CE0FFF742
:1039500013FA064605E000BFFFF70EFA801B642845
:10396000F0D828688003F7D42078944E80074FF071
:1039700001094FF000083BD5686810F00C0F07D024
:103980006868C0F38100022809D16868C00306D4C2
:103990002868800714D5206901281FD110E020690C
:1039A000B0B1C6F80090FFF7E7F9074605E000BFA1
:1039B000FFF7E2F9C01B0228C4D828688007F7D5B2
:1039C0002868616920F0F80040EAC10028600FE033
:1039D000C6F80080FFF7D0F9074606E0E9E000BF2F
:1039E000FFF7CAF9C01B022823D828688007F7D43C
:1039F000207800072CD57248A169D9B1C0F8009091
:103A0000FFF7BAF9074604E0FFF7B6F9C01B022832
:103A10000FD8686A8007F7D56A484FF4FA510068F2
:103A2000B0FBF1F0009000BF0098411E0091FAD267
:103A30000EE080E0C0F80080FFF79EF9074604E042
:103A4000FFF79AF9C01B022875D8686A8007F7D477
:103A50002078400760D5E8690027C00008D4E869ED
:103A600040F08050E861E869012700F08050009044
:103A700055480168C90513D40168834641F4807133
:103A80000160FFF779F9824606E000BFFFF774F99D
:103A9000A0EB0A0064284ED8DBF80000C005F5D57D
:103AA000E06801280AD008B1052813D0286A20F060
:103AB00001002862286A20F0040002E0286A40F031
:103AC00001002862E06841F2883B98B1FFF754F9A1
:103AD00082460BE0286A40F004002862EEE700BF4F
:103AE000FFF74AF9A0EB0A0159455AD8286A80071E
:103AF000F6D50CE0FFF740F9824605E0FFF73CF908
:103B0000A0EB0A0159454CD8286A8007F6D41FB1AA
:103B1000E86920F08050E861E06988B36968C1F322
:103B20008101022945D00228C6F8608004D0FFF741
:103B300023F9044638E034E0FFF71EF9074604E0B5
:103B4000FFF71AF9C01B02282BD828688001F7D488
:103B5000206AB0F5803F05D16868A16820F4003084
:103B600008436860D4E908010843696821F47411C6
:103B700008436860C6F86090FFF7FEF8044606E068
:103B800015E000BFFFF7F8F8001B022809D82868E5
:103B90008001F7D50BE000BFFFF7EEF8001B02280D
:103BA00002D90320BDE8F88F28688001F4D40020F2
:103BB000F8E70120F6E70000001002400000424252
:103BC00080044242D00100200070004070B5040023
:103BD00005D00025A56294F8510010B104E0012041
:103BE00070BD204600F034F8022084F851002068AF
:103BF000016821F040010160D4E901010843D4E9E2
:103C000003121143084361690843218B01F40071D9
:103C10000843E1690843216A0843A16A084321680F
:103C20000860A069042101EA1040616A0843216824
:103C300048602168E06A08612068C16921F4006178
:103C4000C1616565012084F85100002070BD00004D
:103C500030B585B000240094019402940394006868
:103C60001549884225D11548C16941F48041C16197
:103C7000C16901F480410491816941F008018161C9
:103C800080690F4D00F0080004904FF42040009030
:103C9000022001900120039069462846FEF780FF2C
:103CA0004FF48040CDE90004694628460294FEF7AF
:103CB00077FF05B030BD0000003800400010024022
:103CC000000C01402DE9F84F044690F85000002602
:103CD0000A9F9A4693460D464FF0010801280ED0E0
:103CE000012084F85000FFF747F8814694F851000E
:103CF000616801280CD0B1F5827F07D102E0022073
:103D0000BDE8F88FA16809B9042801D00226BDE0FA
:103D100055B1BBF1000F07D0BAF1000F04D094F8F1
:103D20005100012802D004E00126AFE0052084F80C
:103D3000510000206065C4F838B0A4F83EA0A4F893
:103D40003CA02563A4F836A0A4F834A020646064E5
:103D500020680168490603D4016841F04001016010
:103D6000E068B0F5006F606804D0E8B3E08E012829
:103D70003BD06AE010B1E08E01282ED1216835F8E1
:103D8000020BC860E08E401EE08626E0B8F1000F0E
:103D90000DD0E08E58B120688168890707D535F8C5
:103DA000021BC160E08E401EE0864FF00008E08FED
:103DB00058B120688168C90707D0C0682BF8020B8A
:103DC000E08F401EE0874FF00108781C05D0FEF719
:103DD000D3FFA0EB0900B84246D2E08E0028D5D12F
:103DE000E08F0028D2D136E0FFE7216815F8010BFB
:103DF0000873E08E401EE08627E000BFB8F1000F98
:103E00000DD0E08E58B120688168890707D515F874
:103E1000011B0173E08E401EE0864FF00008E08F2A
:103E200058B120688168C90707D0C0680BF8010B3A
:103E3000E08F401EE0874FF00108781C05D0FEF7A8
:103E40009BFFA0EB0900B8420ED2E08E0028D5D12E
:103E5000E08F0028D2D13B46012202212046CDF836
:103E6000009001F07DFD08B103260FE04A46394677
:103E7000204601F00FFD18B101262020606505E005
:103E8000A06818B92068C16880680090012084F893
:103E90005100002084F85000304631E710B5401E34
:103EA000B0F1807F01D3012010BD4FF0E0246061AC
:103EB0000F21601701F087FC0020A061072020611E
:103EC000002010BD7047704730B590F83C20012AA3
:103ED00020D0012280F83C20022380F83D30036886
:103EE0005C6824F070045C6003685C680D682C43B7
:103EF0005C6003689C6824F080049C6003689C6894
:103F000049680C439C6080F83D20002180F83C10FB
:103F1000084630BD022030BD10B5040003D094F82F
:103F20003D0010B107E0012010BD002084F83C00E6
:103F3000204600F00DF8022084F83D00211D206885
:103F400001F010FF012084F83D00002010BD0000AA
:103F500008B5124A01681248914207D1816941F4BB
:103F600000618161806900F4006014E0B1F1804F6C
:103F70000AD00C4A91420FD1C16941F00401C161DC
:103F8000C06900F0040006E0C16941F00101C161AF
:103F9000C06900F00100009008BD0000002C014045
:103FA00000100240000800400168CA6842F00102A7
:103FB000CA600068016841F001010160002070479B
:103FC0000168CA6822F00102CA600068016A41F211
:103FD0001112114207D1016A9210114203D10168F6
:103FE00021F0010101600020704770B5044690F88F
:103FF0003C00012817D0012584F83C50022084F8A9
:104000003D002068826822F0770222F47F428260BD
:104010000868502837D00DDC202859D005DC88B33B
:10402000102841D151E0022070BD302853D04028E3
:104030003AD13FE060282ED070280BD0B0F5805FD9
:1040400003D0B0F5005F2FD110E02068816821F027
:10405000070115E0CB68D1E90121206801F0C3FE1A
:104060002168886840F0770088601DE0CB68D1E95E
:104070000121206801F0B7FE2068816841F4804189
:10408000816011E01EE0CA684968206801F060FFA5
:104090005021206806E0CA684968206801F069FF7D
:1040A0006021206801F0A9FE84F83D50002084F8CA
:1040B0003C0070BDCA684968206801F049FF402192
:1040C0002068EFE700212068ECE710212068E9E78D
:1040D00020212068E6E730212068E3E72DE9F04160
:1040E0000D46040003D094F83D0018B108E001200B
:1040F000BDE8F081002084F83C00204600F03AF84A
:10410000022084F83D002068816821F00701816069
:10411000211D206801F026FE226890689169166AC8
:104120002B68AF69034340F20330814341EA072122
:10413000A868EF6908434FF6FC418843E96840EA04
:104140000720014328692F6A000140EA073008432D
:1041500069686D6926F0AA0646EA05152943936049
:104160002268906120680162012084F83D000020EF
:10417000BEE7000000B585B00021009101910291D9
:10418000039100680E49884218D10E48C16941F078
:104190000201C161C16901F002010491816941F02C
:1041A000040181618069694600F004000490C02028
:1041B0000090012002900448FEF7F2FC05B000BD1B
:1041C00000040040001002400008014010B5044601
:1041D000006891B1042904D00122002101F0F8FD0A
:1041E000206801225FF0040101F0F2FD20680168FF
:1041F00041F001010160002010BD01220021F3E720
:1042000010B504460068D9B1042904D00022114633
:1042100001F0DEFD206800225FF0040101F0D8FD0E
:104220002068016A41F21112114207D1016A92100D
:10423000114203D1016821F001010160002010BD8D
:1042400000221146EAE7704770B50446006801692C
:104250004FF00005C943890715D4C168C9438907D0
:1042600011D4E91E01610120207720688069800750
:10427000204602D0FFF7E7FF04E000F0E9F820460F
:1042800000F00AFA257720680169C943490717D465
:10429000C168C943490713D46FF0040101610220CA
:1042A00020772068806910F4407F204602D0FFF715
:1042B000CAFF04E000F0CCF8204600F0EDF92577C5
:1042C00020680169C943090716D4C168C9430907B1
:1042D00012D46FF008010161042020772068C069C2
:1042E0008007204602D0FFF7AEFF04E000F0B0F8F0
:1042F000204600F0D1F9257720680169C943C90635
:1043000017D4C168C943C90613D46FF01001016105
:10431000082020772068C06910F4407F204602D032
:10432000FFF791FF04E000F093F8204600F0B4F9A5
:10433000257720680169C943C90708D1C168C94305
:10434000C90704D1891E0161204600F0A7F9206841
:104350000169C943090609D4C168C943090605D4DE
:104360006FF0800101612046FFF7ACFD2068016914
:10437000C943490609D4C168C943490605D46FF049
:1043800040010161204600F0DBF920680169C94362
:1043900089060BD4C168C943890607D46FF0200190
:1043A00001612046BDE87040FFF78DBD70BD000083
:1043B00000B585B000210091019102910391006840
:1043C000B0F1804F11D10A48816941F00401816147
:1043D0008069022100F0040004900120CDE9000171
:1043E000039069460348FEF7DBFB05B000BD000003
:1043F000001002400008014070B5044690F83C00EF
:1044000001280DD0012584F83C50022084F83D009D
:1044100042B1042A0AD0082A0CD00C2A11D10DE08E
:10442000022070BD206801F0F1FC0AE0206801F074
:1044300015FD06E0206801F03DFD02E0206801F076
:1044400065FD84F83D50002084F83C0070BD0000FC
:1044500070B5FDF7CDFBFDF7CDFB454C4548A17C84
:1044600011B1012906D00AE0D4F8EC2003689A4281
:1044700008DD04E0D4F8EC2003689A4202DA94F8EC
:104480002B204AB100213C4800F0C6F8D4F8501166
:10449000BDE87040364808470029D4F8F01000689D
:1044A0002DD0081A6061D4F8DC50002301211322BA
:1044B000A84226DA94F8D6505DB194F8D460D4F8C6
:1044C000CC5004EB8606F68D3544C4F8CC5084F805
:1044D000D630D4F8CC3083420BDA94F8D400401CA8
:1044E000C0B284F8D400132801D984F8D42084F809
:1044F000D61094F8D40004EB8000808D2CE0401A94
:10450000D0E7D4F8E8603544854226DC94F8D750EB
:1045100065B194F8D560D4F8D05004EB8606B6F8AF
:104520007E603544C4F8D05084F8D730D4F8D03009
:1045300083420BDC94F8D500132802D984F8D520E7
:1045400002E0401C84F8D50084F8D71094F8D50018
:1045500004EB8000B0F87C0020820848228A0280A8
:1045600005480168486A104480B2486370BD000085
:104570002802002020000020C00700202400002086
:1045800010B5040003D094F83D0010B107E00120FD
:1045900010BD002084F83C00204600F00CF80220FA
:1045A00084F83D00211D206801F0DCFB012084F827
:1045B0003D00002010BD704710B50268044631B1BF
:1045C000042908D008291DD00C2908D11EE0D06884
:1045D00040F0020002E0D06840F00400D060012208
:1045E000206801F0F5FB0B492068884203D1416C3B
:1045F00041F4004141642068016841F0010101601B
:10460000002010BDD06840F00800E7E7D06840F017
:104610001000E3E7002C014010B50268044631B1F8
:10462000042908D008292CD00C2908D12DE0D06805
:1046300020F0020002E0D06820F00400D0600022E8
:10464000206801F0C5FB134B41F211122068911054
:10465000984209D1036A134206D1036A0B4203D17F
:10466000436C23F4004343642068036A134206D179
:10467000026A0A4203D1016821F0010101600020B1
:1046800010BDD06820F00800D8E7D06820F01000F6
:10469000D4E70000002C01407047000070B52049AD
:1046A00004460068096888422BD11E498888401C4E
:1046B00082B28A800878B2FBF0F300FB132301205A
:1046C0000BB9194B18704B78B2FBF3F503FB1523AC
:1046D0000BB9164B1870164B1B78012B01D0022B0F
:1046E00007D18B78B2FBF3F503FB15230BB9114B04
:1046F00018704FF6FA70824201D900208880FCF7CA
:10470000A3FF0D4920680968884208D10068C106E6
:104710000A48416A01D5491E00E0491C416270BD4A
:1047200040080020C8010020C6010020C701002069
:104730007E0000208500002000080020E801002005
:104740007047704770B5026804461068D1685369B5
:1047500010F00F0F50D003F0010501F490763543AF
:104760005DD0C20705D0CA0503D5E26B42F0010255
:10477000E263420705D5DA0703D0E26B42F002029A
:10478000E263820705D5DA0703D0E26B42F0040248
:10479000E263020705D5DA0703D0E26B42F00802B4
:1047A000E263E26B002A33D0800604D5880602D586
:1047B000204601F006FC20684069E16BC0F38010E0
:1047C000090700D428B3204601F0EDFB20684169B9
:1047D00049061AD5416921F040014161606BA0B1E1
:1047E0001B494163606BFEF75BF8002810D0606BDB
:1047F000416BBDE870400847830610D58B060ED587
:104800002046BDE8704001F0DCBB2046FFF799FF71
:1048100070BD2046FFF795FF0020E06370BD0306E2
:1048200006D50B0604D52046BDE8704001F0CCBC8F
:104830004006F3D54806F1D5D168204621F0400165
:10484000D160202184F8391000F069F970BD0000B2
:10485000975F000870B5040004D094F83900002573
:1048600010B106E0012070BD84F83850204600F0F9
:1048700023F8242084F839002068C16821F400510D
:10488000C160204601F0E8FB2068016921F49041F5
:1048900001612068416921F02A0141612068C168F5
:1048A00041F40051C160E563202084F8390084F8A8
:1048B0003A00002070BD000070B586B000250646A5
:1048C000009501950295039500681F49884238D1EB
:1048D0001E49886940F480408861886900F48040FE
:1048E0000490886940F0040088618869184C00F0E1
:1048F00004000490481500900220019001200390CC
:1049000069462046FEF74CF92015CDE900056946B9
:1049100020460295FEF744F90F4C0E482060102007
:10492000C4E901058020C4E9030540016561C4E9CB
:1049300006502046FEF7AAF808B1FDF771F9346376
:10494000666206B070BD00000038014000100240F1
:104950000008014044000240C008002090F83A30AE
:10496000202B22D1F9B1F2B190F83830012B1CD0B4
:1049700081628285C2850021C163222280F83A20AB
:1049800080F838100168CA6842F48072CA60016811
:104990004A6942F001024A610068C16841F02001A1
:1049A000C16000207047012070470220704700005E
:1049B0002DE9F047234900680968884240D1224820
:1049C000234C224A0178208800260A2911540BD052
:1049D000401C80B22080FF2800D92680BDE8F04727
:1049E0001949184801F060BC4FF480794A461949CA
:1049F000164800F09FF8174D1748DFF86080EF78F1
:104A000007702878FF2802D16878FF2807D088F837
:104A10000060268049460F48FBF7A1FBDEE74946C8
:104A20000F48FBF79CFB00200D4903E02A5C0A5469
:104A3000401CC0B2B842F9D3012188F80010E8E761
:104A4000BDE8F08780080020C50100201C0400207C
:104A5000C20100201B050020C401002078000020B6
:104A6000C00000202DE9F843044690F839001F46A5
:104A700016460D46202850D1A5B19EB194F83800B5
:104A800001284AD0012084F838004FF00008C4F80B
:104A90003C80212084F83900FEF76EF9A684814617
:104AA000E68426E00120BDE8F883E08C401EE08427
:104AB000A0684B46B0F5805F4FF000024FF08001D8
:104AC0002046009703D001F0B0FBE8B90DE001F0FB
:104AD000ACFBC8B928882168C0F308004860206989
:104AE00008B16D1C05E0AD1C03E0216815F8010B51
:104AF0004860E08C0028D8D14B4600224021204657
:104B0000009701F092FB08B10320CCE7202084F845
:104B1000390084F838800020C5E70220C3E77047D9
:104B200001A001F0C9FBFEE70D0A4861726446610D
:104B3000756C74002DE9F04117468846064600243E
:104B40001DE0305DFBF7FEFAC5B230194078FBF787
:104B5000F9FAC0B2392D01D9373D00E0303DE9B254
:104B6000392801D9373800E03038C0B204EBD472AC
:104B700040EA011008EB6201A41C087024B2BC4298
:104B8000DFDBBDE8F08100001FB54FF47A7401232C
:104B900003AA8DE81C000A46014610230748FEF7C9
:104BA00045FA040003D0014605A001F085FB094841
:104BB00004709DF80C0004B010BD0000D406002065
:104BC0000D0A2072656164207374617475733A25EF
:104BD000640000000000002077B583B005464FF464
:104BE0007A73012205A88DE80D000A461023294694
:104BF0001048FEF72BFB040003D001460EA001F085
:104C00005BFB124804700B48FEF7BCF82028FAD171
:104C10004FF496763246334629460648FEF756F953
:104C20000328F7D00348FEF7ADF82028FAD106B0E4
:104C3000204670BDD40600200D0A207265616420F4
:104C40007374617475733A256400000000000020DD
:104C500001684A69D24352050CD46FF480624A61FC
:104C600004210164002140F8301F202242730173A7
:104C700001207047002070472DE9F84F0446006876
:104C800089460B9D01689846174641F48061016092
:104C90002068016841F48071016000954FF0011AAD
:104CA0000022514620460A9B00F0D5F8F0BB21684F
:104CB00009F0FE0008610AF1010B2B465946204617
:104CC0000A9A00F0F9F818B1206C042812D03AE0E2
:104CD00020684169806900902A4620460A9900F0C0
:104CE00060F950B1206C04282DD12068016841F48E
:104CF000007101600120BDE8F88FFEB2B8F1010F2C
:104D000009D02168380A08612A4620460A9900F02D
:104D100048F90028E6D1206806612A4620460A990B
:104D200000F03FF90028DDD1206800E00BE00168C9
:104D300041F48071016000950022514620460A9B93
:104D400000F089F808B10320D5E7216809F0FF00D9
:104D500040F0010008612B46594620460A9A00F0AF
:104D6000ABF80028B0D1C6E72DE9F8430446006847
:104D70000D46DDE9089701689846164641F48071B2
:104D800001604B4600224FF001112046009700F0D1
:104D900062F8E8B9216805F0FE0008613B464A4622
:104DA0001849204600F088F828B1206C04280FD15B
:104DB0000120BDE8F88320684169806900903A4687
:104DC0004946204600F0EDF820B1206C042813D0AD
:104DD0000320EEE7F5B2B8F1010F09D02168300ADF
:104DE00008613A464946204600F0DBF80028ECD13D
:104DF000206805610020DCE72068016841F400714B
:104E00000160D5E70200010070B516460D46044664
:104E10001AE02046FFF71CFF08B1012070BD681C96
:104E200012D025B1FDF7A8FF801BA8420CD954F879
:104E3000400F40F0200044F810090020206020219D
:104E400061732073032070BD20684069C043400730
:104E5000DFD4002070BD2DE9F0471E4690460D4678
:104E60000446C1F30747DDF8209012E0701C10D013
:104E70002EB1FDF781FFA0EB0900B04209D9002057
:104E800044F8300F20216173A07320730320BDE824
:104E9000F0872068012F0AD0806925EA000000040D
:104EA000000C06D000214145E0D00020EFE740692A
:104EB000F3E70121F7E700002DE9F0479A46914614
:104EC0000D46044600264FF02008C1F307472AE0AC
:104ED00020684069C043400512D42068016841F44D
:104EE0000071016021686FF48060486104202064D3
:104EF000266384F83D8084F83C600120BDE8F0879B
:104F0000B9F1FF3F0FD0B9F1000F05D0FDF734FF25
:104F1000A0EB0A01494506D944F8306F84F80D80AA
:104F200026730320EAE72068012F07D0D0F8180085
:104F300025EA00000004000CE0D0C9E74069F7E76B
:104F40002DE9F041002590460E460446202721E039
:104F50004069C043C0060CD421686FF0100048615E
:104F60002564256384F83D7084F83C500120BDE839
:104F7000F0812EB1FDF700FFA0EB0800B04209D987
:104F800054F8400F40F0200044F804096770257081
:104F90000320ECE720684169C9434906D8D40020C2
:104FA000E5E770B516460D4604461AE02046FFF7C1
:104FB0004FFE08B1012070BD681C12D025B1FDF76D
:104FC000DBFE801BA8420CD954F8400F40F02000B3
:104FD00044F8100900202060202161732073032011
:104FE00070BD20684069C0430006DFD4002070BD5A
:104FF0002DE9F0412248FCF77FFE03222149204899
:10500000FDF736F81F4C2088C0F30B00FBF733FB8D
:105010001D4F4FF0663632463B46FBF726FA6FF0DF
:105020000B084246FBF702FBFBF772FB174D686368
:10503000A088C0F30B00FBF71EFB32463B46FBF794
:1050400014FA4246FBF7F2FAFBF762FB2863208969
:10505000C0F30B00FBF70FFB32463B46FBF705FAAC
:105060004246FBF7E3FAFBF753FBFBF73EFB084A2C
:10507000084BFBF76CFAFBF74BFBA863BDE8F0812C
:105080001C0600201004002066660A407400002000
:105090007B14AE47E17A643F70B5FBF7D9FD264D2E
:1050A000287801283FD12548254C0078012806D0D2
:1050B000022810D02349097801291BD02DE0402176
:1050C0002046FDF750FE012220212046FDF74FFE2D
:1050D000012280210AE080212046FDF744FE0122C2
:1050E00020212046FDF743FE012240212046FDF706
:1050F0003EFE12E01449097801290ED168B9012257
:1051000040212046FDF733FE012280212046FDF795
:105110002EFE20212046FDF726FEFCF783FDFFF73B
:1051200067FF0020287000F089FD00F00FF8BDE84F
:10513000704000F0F3BC0000C6010020BF01002059
:10514000000C014074000020760000202DE9F0479B
:10515000DFF8A8804FF4007949464046FDF7FEFD90
:105160000025274E274F284C01280CD04FF480797A
:1051700049464046FDF7F2FD012823D0A57265742B
:10518000A574BDE8F0870A20FDF7EAFC49464046D1
:10519000FDF7E4FD0128F4D1804684F80A80A07C64
:1051A000012800D135603068FBF757FA3968FBF702
:1051B000D5FAE6D2607C0128E3D13560A56284F897
:1051C0001280DEE70A20FDF7CBFC49464046FDF79A
:1051D000C5FD0128D5D10220A0723068FBF73DFA49
:1051E0003968FBF7B1FACCD2607C0128C9D13068AC
:1051F0000546FBF732FA3860A562C2E7000C0140B1
:105200002000002038000020740000203EB500215E
:105210001B4800910191194A0291026092150124E4
:105220004161C0E9022403254FF460220561C26197
:105230004160FCF747FE08B1FCF7F2FC0420CDE921
:105240000004052469460E480294FCF7B9FD08B134
:10525000FCF7E6FC0220CDE9004069460848FCF76F
:10526000AFFD08B1FCF7DCFC694605480195FCF789
:10527000A7FD002801D0FCF7D3FC3EBD002401406F
:105280001C0600200F4810B50D490160082141603F
:1052900000214FF480228160C0E90312D200C0E9EE
:1052A00005210122C161C0E908128162C162FDF7D6
:1052B0000DF9002803D0BDE81040FCF7B1BC10BDCB
:1052C0000064004090060020054808B5416941F09F
:1052D00001014161406900F00100009008BD00003B
:1052E000001002402DE9F04186B0002536480095B7
:1052F000019502950395816941F0200181618169E1
:1053000001F020010491816941F00401816181690A
:1053100001F004010491816941F008018161806913
:105320002A4F00F008000490002202213846FDF7C1
:105330001EFDDFF89C80002241F203014046FDF78C
:1053400016FD0122E0214046FDF711FD0226012451
:10535000CDE90064CDE9025669463846FDF720FCE8
:105360000094CDE90146694640460394FDF718FCD8
:10537000CDE900640296694640460396FDF710FCAD
:1053800020038DE83100694640460394FDF708FC90
:10539000200200900F48CDE9010569463846FDF727
:1053A000FFFB4FF44670CDE9000569464046029583
:1053B000FDF7F6FBE0208DE8710069464046FDF7F9
:1053C000EFFB06B0BDE8F08100100240000801408C
:1053D000000C0140000011100D4810B50B49016090
:1053E00042F21071416000214FF480428160C0E9B7
:1053F000031241618161C1610162FDF7C7FC0028B0
:1054000003D0BDE81040FCF70BBC10BD00580040B5
:10541000D406002010B5002203212520FEF748F80D
:105420002520FEF739F8002201211720FEF740F869
:105430001720FEF731F8002211461C20FEF738F83D
:105440001C20FEF729F8002205211D20FEF730F868
:105450001D20FEF721F8002202211E20FEF728F869
:105460001E20FEF719F8002205210E20FEF720F875
:105470000E20FEF711F8002204211920FEF718F87B
:105480001920FEF709F8002207211420FEF710F872
:105490001420FEF701F8002206210B20FEF708F881
:1054A000BDE810400B20FDF7F7BF0000104810B515
:1054B0000E4901604FF48271416000218160C1603A
:1054C0004FF400720161C0E905121822C0E90721FA
:1054D000416281620A21C162FEF778FB002803D095
:1054E000BDE81040FCF79CBB10BD00000038004038
:1054F0002807002010B586B00024174800940194B6
:105500000294039404941349059401604721C0E96F
:1055100001144CF25031C0E9031444618461FEF778
:10552000FBFC08B1FCF77CFB4FF48050009069460F
:105530000948FEF75AFD08B1FCF772FB049404A970
:1055400005480594FEF7C0FC002801D0FCF768FB75
:1055500006B010BD002C01408007002010B58EB0B1
:1055600000240794089409940A940B941C2168461B
:105570000C94FAF7F4FD1F484FF08041016023219D
:10558000C0E901144FF6FF71C0E903148461FEF70E
:10559000C3FC08B1FCF744FB4FF48050079007A907
:1055A0001448FEF722FD08B1FCF73AFB1148FEF75C
:1055B000E7FF08B1FCF734FB0B940BA90D480C94E2
:1055C000FEF782FC08B1FCF72BFB302000904FF671
:1055D000FA70CDE901040022694606480494FEF7FA
:1055E0000BFF08B1FCF71CFB0248FEF7E1FE0EB012
:1055F00010BD0000C007002010B58CB02421684603
:10560000FAF7ADFD00241648099414490A94C0E93C
:1056100000144FF6FF71C0E9024104618461032068
:10562000CDE900040120CDE9020405210491CDE972
:105630000540CDE9074169460948FEF74FFD08B12D
:10564000FCF7EEFA099409A905480A94FEF73CFC18
:10565000002801D0FCF7E4FA0CB010BD00040040B3
:105660000008002010B586B000241748009401946B
:105670000294039404941349059401602321C0E922
:10568000011444F62061C0E903148461FEF744FC70
:1056900008B1FCF7C5FA4FF48050009069460A48FB
:1056A000FEF7A3FC08B1FCF7BBFA049404A9064872
:1056B0000594FEF709FC002801D0FCF7B1FA06B00A
:1056C00010BD000000080040400800200C4810B544
:1056D0000A4901604FF4E1314160002181600C22F0
:1056E000C160C0E904128161C161FFF7B3F800280D
:1056F00003D0BDE81040FCF793BA10BD003801405C
:1057000080080020FEE700002DE9F0478946824628
:1057100000F0ACF92548264C264D0068E061D5E93B
:105720000521511AA161AA6100D54942A1612289CE
:1057300011442181FAF791FF4946FBF70FF801D890
:10574000012000E0002020701B48E768DFF86C8033
:105750001B4E874202DAC4F820800AE03078FAF75C
:1057600085FF3946FAF7F0FF03D23078FAF77EFF6B
:10577000E060A069401CFAF770FF0146E068FAF7A4
:1057800083FD404502DD4FF07E50E0604846FAF769
:105790007FFF04465046FAF794FF2246D5F84C3175
:1057A000BDE8F04781B20348184700002000002000
:1057B0002800002028020020CDCCCC3D0000A040D5
:1057C0007F00002070470907090E002806DA00F064
:1057D0000F0000F1E02080F8141D704700F1E02078
:1057E00080F80014704700001348124A1049C0E9BD
:1057F0000412134A1149C0E90612C0E90812002137
:105800004160104A81600260C160104B28300E4A2E
:10581000C0E904230E4B094AC0E906230D4B416041
:10582000034A8160C0E908230B4A0260C1607047E7
:105830009A9999999999B93F800300207B14AE47B2
:10584000E17A743F00004842B81E85EB51B8BE3F74
:10585000E17A843F9999A93F0000E0407047FF2218
:10586000202903D8C840CA40521E90437047000008
:10587000074A002108461160516091601161D161B1
:105880005318491CC9B218750829F9D3704700008C
:10589000EC03002038B50B4600920446002280211C
:1058A00000F05EF8002804D0606D40F020006065D4
:1058B000032038BD2DE9F04101220E4E04461503A8
:1058C00029463046FDF753FA44F008000007000E61
:1058D00000F012F80446FF2000F00EF80746002200
:1058E00029463046FDF743FA04F00F0047EA00204E
:1058F000BDE8F081000C01400EB501238DF80800D1
:105900006FF07F40009001AA02A90548FEF7DAF97E
:1059100010B1FF208DF804009DF804000EBD0000BA
:10592000280700202DE9F04101220C4F0C460546C6
:10593000160331463846FDF71AFAC4F3032040EA4D
:105940000510C0B2FFF7D8FFE0B2FFF7D5FF314630
:105950003846BDE8F0410022FDF709BA000C0140CD
:105960002DE9F0411D4617460E460446DDF8188025
:1059700035E0681C33D02DB1FDF7FEF9A0EB08002F
:10598000A8422CD32068416821F0E00141606068A2
:10599000B0F5827F0BD1A068B0F5004F02D0B0F512
:1059A000806F04D12068016821F040010160A06A85
:1059B000B0F5005F0AD1206801684DF6FF72114012
:1059C00001602068016841F400510160012084F801
:1059D0005100002084F850000320BDE8F0812068C9
:1059E000806836EA000004D00020B842C1D100200F
:1059F000F3E70120F9E7000006480178064829B1DD
:105A0000012905D101220221FDF7B1B90022FAE7EF
:105A1000704700007C000020000801400648017823
:105A2000064829B1012905D100220221FDF79FB9BD
:105A30000122FAE7704700007C00002000080140C6
:105A4000074810B5008840F001010020FFF76AFF09
:105A500000210448FEF7B0FD03490020087010BD86
:105A600008000020C0070020C101002010B5094C2B
:105A7000A07800280DD100210748FEF79DFD0748BA
:105A80000078FCF737F8FFF7DBFF0120A07000205B
:105A9000607010BD28000020C00700201C000020FE
:105AA0007047000070B50C4C6079012812D1FBF7EB
:105AB0005FFAFBF78FFA0948002580F83D50FCF7A4
:105AC0005BFE04F1440600223078072100F008F85C
:105AD0003070657170BD00007400002090060020D9
